{
  "contractName": "Casino",
  "abi": [
    {
      "constant": false,
      "inputs": [],
      "name": "generateNumberWinner",
      "outputs": [],
      "payable": false,
      "type": "function"
    },
    {
      "constant": true,
      "inputs": [],
      "name": "numberOfBets",
      "outputs": [
        {
          "name": "",
          "type": "uint256"
        }
      ],
      "payable": false,
      "type": "function"
    },
    {
      "constant": true,
      "inputs": [
        {
          "name": "player",
          "type": "address"
        }
      ],
      "name": "checkPlayerExists",
      "outputs": [
        {
          "name": "",
          "type": "bool"
        }
      ],
      "payable": false,
      "type": "function"
    },
    {
      "constant": false,
      "inputs": [],
      "name": "kill",
      "outputs": [],
      "payable": false,
      "type": "function"
    },
    {
      "constant": true,
      "inputs": [
        {
          "name": "",
          "type": "address"
        }
      ],
      "name": "playerInfo",
      "outputs": [
        {
          "name": "amountBet",
          "type": "uint256"
        },
        {
          "name": "numberSelected",
          "type": "uint256"
        }
      ],
      "payable": false,
      "type": "function"
    },
    {
      "constant": false,
      "inputs": [
        {
          "name": "numberWinner",
          "type": "uint256"
        }
      ],
      "name": "distributePrizes",
      "outputs": [],
      "payable": false,
      "type": "function"
    },
    {
      "constant": false,
      "inputs": [
        {
          "name": "numberSelected",
          "type": "uint256"
        }
      ],
      "name": "bet",
      "outputs": [],
      "payable": true,
      "type": "function"
    },
    {
      "constant": true,
      "inputs": [],
      "name": "owner",
      "outputs": [
        {
          "name": "",
          "type": "address"
        }
      ],
      "payable": false,
      "type": "function"
    },
    {
      "constant": true,
      "inputs": [],
      "name": "minimumBet",
      "outputs": [
        {
          "name": "",
          "type": "uint256"
        }
      ],
      "payable": false,
      "type": "function"
    },
    {
      "constant": true,
      "inputs": [],
      "name": "maxAmountOfBets",
      "outputs": [
        {
          "name": "",
          "type": "uint256"
        }
      ],
      "payable": false,
      "type": "function"
    },
    {
      "constant": true,
      "inputs": [
        {
          "name": "",
          "type": "uint256"
        }
      ],
      "name": "players",
      "outputs": [
        {
          "name": "",
          "type": "address"
        }
      ],
      "payable": false,
      "type": "function"
    },
    {
      "constant": true,
      "inputs": [],
      "name": "totalBet",
      "outputs": [
        {
          "name": "",
          "type": "uint256"
        }
      ],
      "payable": false,
      "type": "function"
    },
    {
      "inputs": [
        {
          "name": "_minimumBet",
          "type": "uint256"
        }
      ],
      "payable": false,
      "type": "constructor"
    },
    {
      "payable": true,
      "type": "fallback"
    }
  ],
  "bytecode": "0x60606040526064600455341561001157fe5b604051602080610a34833981016040528080519060200190919050505b33600060006101000a81548173ffffffffffffffffffffffffffffffffffffffff021916908373ffffffffffffffffffffffffffffffffffffffff16021790555060008114151561008157806001819055505b5b505b6109a1806100936000396000f300606060405236156100b8576000357c0100000000000000000000000000000000000000000000000000000000900463ffffffff1680630a50e361146100c15780632ca8c6d3146100d35780634081d916146100f957806341c0e1b5146101475780634b114691146101595780636ca3fc3b146101aa5780637365870b146101ca5780638da5cb5b146101e2578063c38a8afd14610234578063e08a96cd1461025a578063f71d96cb14610280578063fe5e1853146102e0575b6100bf5b5b565b005b34156100c957fe5b6100d1610306565b005b34156100db57fe5b6100e3610327565b6040518082815260200191505060405180910390f35b341561010157fe5b61012d600480803573ffffffffffffffffffffffffffffffffffffffff1690602001909190505061032d565b604051808215151515815260200191505060405180910390f35b341561014f57fe5b6101576103d4565b005b341561016157fe5b61018d600480803573ffffffffffffffffffffffffffffffffffffffff16906020019091905050610468565b604051808381526020018281526020019250505060405180910390f35b34156101b257fe5b6101c8600480803590602001909190505061048c565b005b6101e060048080359060200190919050506106cd565b005b34156101ea57fe5b6101f2610841565b604051808273ffffffffffffffffffffffffffffffffffffffff1673ffffffffffffffffffffffffffffffffffffffff16815260200191505060405180910390f35b341561023c57fe5b610244610867565b6040518082815260200191505060405180910390f35b341561026257fe5b61026a61086d565b6040518082815260200191505060405180910390f35b341561028857fe5b61029e6004808035906020019091905050610873565b604051808273ffffffffffffffffffffffffffffffffffffffff1673ffffffffffffffffffffffffffffffffffffffff16815260200191505060405180910390f35b34156102e857fe5b6102f06108b3565b6040518082815260200191505060405180910390f35b60006001600a4381151561031657fe5b060190506103238161048c565b5b50565b60035481565b60006000600090505b6005805490508110156103c9578273ffffffffffffffffffffffffffffffffffffffff1660058281548110151561036957fe5b906000526020600020900160005b9054906101000a900473ffffffffffffffffffffffffffffffffffffffff1673ffffffffffffffffffffffffffffffffffffffff1614156103bb57600191506103ce565b5b8080600101915050610336565b600091505b50919050565b600060009054906101000a900473ffffffffffffffffffffffffffffffffffffffff1673ffffffffffffffffffffffffffffffffffffffff163373ffffffffffffffffffffffffffffffffffffffff16141561046557600060009054906101000a900473ffffffffffffffffffffffffffffffffffffffff1673ffffffffffffffffffffffffffffffffffffffff16ff5b5b565b60066020528060005260406000206000915090508060000154908060010154905082565b6104946108b9565b6000600060006000600060009450600093505b6005805490508410156105ec576005848154811015156104c357fe5b906000526020600020900160005b9054906101000a900473ffffffffffffffffffffffffffffffffffffffff16925086600660008573ffffffffffffffffffffffffffffffffffffffff1673ffffffffffffffffffffffffffffffffffffffff16815260200190815260200160002060010154141561058b5782868660648110151561054b57fe5b602002019073ffffffffffffffffffffffffffffffffffffffff16908173ffffffffffffffffffffffffffffffffffffffff168152505084806001019550505b600660008473ffffffffffffffffffffffffffffffffffffffff1673ffffffffffffffffffffffffffffffffffffffff16815260200190815260200160002060006000820160009055600182016000905550505b83806001019450506104a7565b60006005816105fb91906108f8565b50606460025481151561060a57fe5b049150600090505b848110156106c357600073ffffffffffffffffffffffffffffffffffffffff16868260648110151561064057fe5b602002015173ffffffffffffffffffffffffffffffffffffffff161415156106b557858160648110151561067057fe5b602002015173ffffffffffffffffffffffffffffffffffffffff166108fc839081150290604051809050600060405180830381858888f1935050505015156106b457fe5b5b5b8080600101915050610612565b5b50505050505050565b6106d63361032d565b1515156106e35760006000fd5b600181101580156106f55750600a8111155b15156107015760006000fd5b60015434101515156107135760006000fd5b34600660003373ffffffffffffffffffffffffffffffffffffffff1673ffffffffffffffffffffffffffffffffffffffff1681526020019081526020016000206000018190555080600660003373ffffffffffffffffffffffffffffffffffffffff1673ffffffffffffffffffffffffffffffffffffffff16815260200190815260200160002060010181905550600360008154809291906001019190505550600580548060010182816107c79190610924565b916000526020600020900160005b33909190916101000a81548173ffffffffffffffffffffffffffffffffffffffff021916908373ffffffffffffffffffffffffffffffffffffffff160217905550503460026000828254019250508190555060045460035410151561083d5761083c610306565b5b5b50565b600060009054906101000a900473ffffffffffffffffffffffffffffffffffffffff1681565b60015481565b60045481565b60058181548110151561088257fe5b906000526020600020900160005b915054906101000a900473ffffffffffffffffffffffffffffffffffffffff1681565b60025481565b610c80604051908101604052806064905b600073ffffffffffffffffffffffffffffffffffffffff168152602001906001900390816108ca5790505090565b81548183558181151161091f5781836000526020600020918201910161091e9190610950565b5b505050565b81548183558181151161094b5781836000526020600020918201910161094a9190610950565b5b505050565b61097291905b8082111561096e576000816000905550600101610956565b5090565b905600a165627a7a7230582050ba19f7367e003029c67288b48e9249990cd52751a860a051f2fc531f3d78de0029",
  "source": "pragma solidity ^0.4.11;\r\n\r\ncontract Casino{\r\n    address public owner;\r\n    uint256 public minimumBet;\r\n    uint256 public totalBet;\r\n    uint256 public numberOfBets;\r\n    uint256 public maxAmountOfBets = 100;\r\n    address[] public players;\r\n\r\n    struct Player {\r\n      uint256 amountBet;\r\n      uint256 numberSelected;\r\n    }\r\n\r\n    mapping(address => Player) public playerInfo;\r\n\r\n    function Casino(uint256 _minimumBet){\r\n        owner = msg.sender;\r\n        if(_minimumBet != 0 ) minimumBet = _minimumBet;\r\n    }\r\n\r\n    function kill() public{\r\n        if(msg.sender == owner) selfdestruct(owner);\r\n    }\r\n\r\n    function checkPlayerExists(address player) public constant returns(bool){\r\n      for(uint256 i = 0; i < players.length; i++){\r\n         if(players[i] == player) return true;\r\n      }\r\n      return false;\r\n    }\r\n\r\n    function bet(uint256 numberSelected) public payable {\r\n        require(!checkPlayerExists(msg.sender));\r\n        require(numberSelected >= 1 && numberSelected <= 10);\r\n        require(msg.value >= minimumBet);\r\n        playerInfo[msg.sender].amountBet = msg.value;\r\n        playerInfo[msg.sender].numberSelected = numberSelected;\r\n        numberOfBets++;\r\n        players.push(msg.sender);\r\n        totalBet += msg.value;\r\n        if(numberOfBets >= maxAmountOfBets) generateNumberWinner();\r\n   }\r\n\r\n   function generateNumberWinner() public {\r\n        uint256 numberGenerated = block.number % 10 + 1; \r\n        distributePrizes(numberGenerated);\r\n   }\r\n\r\n   function distributePrizes(uint256 numberWinner) public {\r\n        address[100] memory winners;\r\n        uint256 count = 0; \r\n        for(uint256 i = 0; i < players.length; i++){\r\n            address playerAddress = players[i];\r\n            if(playerInfo[playerAddress].numberSelected == numberWinner){\r\n                winners[count] = playerAddress;\r\n                count++;\r\n            }\r\n            delete playerInfo[playerAddress]; \r\n        }\r\n        players.length = 0; \r\n        uint256 winnerEtherAmount = totalBet / winners.length; \r\n        for(uint256 j = 0; j < count; j++){\r\n            if(winners[j] != address(0)) \r\n            winners[j].transfer(winnerEtherAmount);\r\n        }\r\n    }\r\n\r\n    function() public payable {}\r\n\r\n}",
  "sourcePath": "C:\\Users\\DeDE\\Desktop\\Projects\\casino-etherum\\contracts\\Casino.sol",
  "compiler": {
    "name": "solc",
    "version": "0.4.11+commit.68ef5810.Emscripten.clang"
  },
  "schemaVersion": "3.4.4",
  "updatedAt": "2022-01-23T19:06:12.198Z",
  "devdoc": {
    "methods": {}
  },
  "userdoc": {
    "methods": {}
  }
}